:04000000020029329F
:01000B0032C2
:0100130032BA
:01001B0032B2
:030023000201F9DE
:200082007508EF750901750AFF750BFF750CFF750DFF750E01750F007510087511047512CF
:2000A2000175130075140075150075160A7517007518187521EF7522017523FF7524FF751B
:2000C20025FF7526FF752701752800752906752A06752B01752C00752D00752E00752F0EA4
:1800E200755A00755BE1755C0E755DE6755E0E755FEC75600E02002643
:0300260002025D76
:2000FA00AE82AF837C007D008C028D03C3EA9EEB9F50147AB87B0B1ABAFF011BEA4B70F7F1
:20011A000CBC00E40D80E122AF82C2B28FA0D2B39000011200FAC2B322AF82D2B28FA0D246
:20013A00B39000011200FAC2B322AD82AE83AFF07C00EC2DF9E43EFA8F0389828A838BF0F0
:20015A00120D5BFB60188B82C007C006C005C004120133D004D005D006D0070C80D42275E2
:20017A00A000C2B290000A1200FA75823812012275820C12012275820612012275820112D3
:20019A00012275822012012222AC82AD83AEF0FF756780756801E4F569F56A8C828D838E32
:2001BA00F0EF120CF685616785626885636985646A120CF6AC82AD83E4C39CFC74019D75BA
:2001DA008920759850758B008C8DD28ED2ACD2AF22AF82C2AF8F9910990280FBD2AF22C012
:2001FA00E0C007C006C000C0D075D000C2AFC298AF99AE5A055AEE243AF8A607D2AFD0D057
:20021A00D000D006D007D0E032AD82AE83AFF005657C00C3EC95655029EC2DF9E43EFA8FA1
:20023A000389828A838BF0120D5BF582C007C006C005C0041201EBD004D005D006D0070CA7
:20025A0080D1227F007E307D308E66C2B4C007C006C005120179756180756225E4F563F56C
:20027A006490C00075F0A8E41201A3900DCB75F0801201449000641200FA120179900DDA62
:20029A0075F0801201447582C0120122900DE975F080120144D005D006D00720900302071C
:2002BA006EC007C006C005120179900DF875F080120144755A0075650B900D7B75F0801244
:2002DA0002239000641200FAD005D006D00774F5255A4003020385E543FB70227F01C007AC
:2002FA00C006C0051201797582C0120122900E0875F080120144D005D006D007806DBB01D4
:20031A00227F00C007C006C0051201797582C0120122900E1675F080120144D005D006D0ED
:20033A00078048BB02227F00C007C006C0051201797582C0120122900E2475F080120144AE
:20035A00D005D006D0078023BB03207F00C007C006C0051201797582C0120122900E3375F1
:20037A00F080120144D005D006D007BF01028003020473755A007F0075650C900D8F75F097
:20039A0080C007C006C0051202239000641200FAD005D006D00774F5255A4003020473E52F
:2003BA0043FB70237F01C007C006C0051201797582C0120122900E4175F080120144D00518
:2003DA00D006D007020473BB01227F00C007C006C0051201797582C0120122900E1675F09D
:2003FA0080120144D005D006D007806DBB06227F00C007C006C0051201797582C012012271
:20041A00900E4E75F080120144D005D006D0078048BB07227F00C007C006C005120179759A
:20043A0082C0120122900E5C75F080120144D005D006D0078023BB15207F00C007C006C014
:20045A00051201797582C0120122900E6B75F080120144D005D006D007BF010280030205F2
:20047A003B755A007F0075650B900D7B75F080C007C006C0051202239000641200FAD00599
:20049A00D006D00774F5255A400302053BE543FB70227F01C007C006C0051201797582C05E
:2004BA00120122900E0875F080120144D005D006D007806DBB01227F00C007C006C00512DB
:2004DA0001797582C0120122900E1675F080120144D005D006D0078048BB02227F00C0073D
:2004FA00C006C0051201797582C0120122900E2475F080120144D005D006D0078023BB03FE
:20051A00207F00C007C006C0051201797582C0120122900E3375F080120144D005D006D0D0
:20053A0007BF01028003020629755A007F0075650C900DA375F080C007C006C00512022342
:20055A009000641200FAD005D006D00774F5255A4003020629E543FB70237F01C007C006E0
:20057A00C0051201797582C0120122900E4175F080120144D005D006D007020629BB012278
:20059A007F00C007C006C0051201797582C0120122900E1675F080120144D005D006D00786
:2005BA00806DBB06227F00C007C006C0051201797582C0120122900E7A75F080120144D0E4
:2005DA0005D006D0078048BB07227F00C007C006C0051201797582C0120122900E5C75F0FB
:2005FA0080120144D005D006D0078023BB15207F00C007C006C0051201797582C0120122AC
:20061A00900E6B75F080120144D005D006D007BF010280030206C9755A007F0075650B9020
:20063A000DB775F080C007C006C0051202239000641200FAD005D006D00774F5255A506F45
:20065A00E543FB70227F01C007C006C0051201797582C0120122900E8575F080120144D052
:20067A0005D006D0078048BB01227F00C007C006C0051201797582C0120122900E1675F0A6
:20069A0080120144D005D006D0078023BB0A207F00C007C006C0051201797582C012012216
:2006BA00900E9275F080120144D005D006D007BF0102800302076E755A007F0075650C90B2
:2006DA00002175F040C007C006C0051202239000641200FAD005D006D00774F4255A507484
:2006FA00E54370267F01C007C006C0051201797582C0120122900EA275F080120144D00587
:20071A00D006D007E52DFB04F52D7401B543207F00C007C006C0051201797582C012012209
:20073A00900EAE75F080120144D005D006D0077418B543207F00C007C006C005120179751F
:20075A0082C0120122900EB875F080120144D005D006D0072091030202B5C007C006C00535
:20077A00120179900DF875F080120144755A0075650B900D7B75F080120223900064120014
:20079A00FAD005D006D00774F5255A400302083EE543FB70227F01C007C006C0051201793D
:2007BA007582C0120122900E0875F080120144D005D006D007806DBB01227F00C007C006F8
:2007DA00C0051201797582C0120122900E1675F080120144D005D006D0078048BB02227F2A
:2007FA0000C007C006C0051201797582C0120122900E2475F080120144D005D006D0078015
:20081A0023BB03207F00C007C006C0051201797582C0120122900E3375F080120144D00592
:20083A00D006D007BF0102800302092C755A007F0075650C900D8F75F080C007C006C005DE
:20085A001202239000641200FAD005D006D00774F5255A400302092CE543FB70237F01C06D
:20087A0007C006C0051201797582C0120122900E4175F080120144D005D006D00702092C80
:20089A00BB01227F00C007C006C0051201797582C0120122900E1675F080120144D005D082
:2008BA0006D007806DBB06227F00C007C006C0051201797582C0120122900E4E75F0801245
:2008DA000144D005D006D0078048BB07227F00C007C006C0051201797582C0120122900EA4
:2008FA005C75F080120144D005D006D0078023BB15207F00C007C006C0051201797582C01D
:20091A00120122900E6B75F080120144D005D006D007BF010280030209F4755A007F0075BA
:20093A00650B900D7B75F080C007C006C0051202239000641200FAD005D006D00774F52597
:20095A005A40030209F4E543FB70227F01C007C006C0051201797582C0120122900E0875C7
:20097A00F080120144D005D006D007806DBB01227F00C007C006C0051201797582C0120122
:20099A0022900E1675F080120144D005D006D0078048BB02227F00C007C006C005120179A5
:2009BA007582C0120122900E2475F080120144D005D006D0078023BB03207F00C007C00624
:2009DA00C0051201797582C0120122900E3375F080120144D005D006D007BF0102800302EA
:2009FA000AE2755A007F0075650C900DA375F080C007C006C0051202239000641200FAD03F
:200A1A0005D006D00774F5255A4003020AE2E543FB70237F01C007C006C0051201797582E6
:200A3A00C0120122900E4175F080120144D005D006D007020AE2BB01227F00C007C006C072
:200A5A00051201797582C0120122900E1675F080120144D005D006D007806DBB06227F003E
:200A7A00C007C006C0051201797582C0120122900E7A75F080120144D005D006D0078048F4
:200A9A00BB07227F00C007C006C0051201797582C0120122900E5C75F080120144D005D034
:200ABA0006D0078023BB15207F00C007C006C0051201797582C0120122900E6B75F0801263
:200ADA000144D005D006D007BF01028003020B82755A007F0075650B900DB775F080C0072E
:200AFA00C006C0051202239000641200FAD005D006D00774F5255A506FE543FB70227F01BC
:200B1A00C007C006C0051201797582C0120122900E8575F080120144D005D006D007804848
:200B3A00BB01227F00C007C006C0051201797582C0120122900E1675F080120144D005D0DF
:200B5A0006D0078023BB0A207F00C007C006C0051201797582C0120122900E9275F08012A6
:200B7A000144D005D006D007BF01028003020C19755A007F0075651090000875F040C007EC
:200B9A00C006C0051202239000641200FAD005D006D00774F1255A5066E543FB701F7F012B
:200BBA007582C0C007C006C005120122900EC475F080120144D005D006D0078042BB011F20
:200BDA007F007582C0C007C006C005120122900E1675F080120144D005D006D0078020BB71
:200BFA00091D7F007582C0C007C006C005120122900ED275F080120144D005D006D007BF0B
:200C1A00010280030202B57F008F5AAB45BB0002800EBB0102804BBB0203020CBA0202B50E
:200C3A008E03EB04FEC007C006C005120179E54525E0245BF98702098703197C808A828BCF
:200C5A00838CF01201447582C0120122D005D0068E82C006C005120133D005D006D0070228
:200C7A0002B58D04EC04FDC007C006C005120179E54525E0245BF98703098704197A808BE4
:200C9A00828C838AF01201447582C0120122D0058D82C005120133D005D006D0070202B5C2
:200CBA00E56604F566C007C006C005120179E54525E0245BF98703098704197A808B828C21
:1C0CDA00838AF01201447582C0120122856682120133D005D006D0070202B522AE
:200D7B00EF01FFFFFFFF0100030100050000000000000000EF01FFFFFFFF0100040201006E
:200D9B000800000000000000EF01FFFFFFFF0100040202000900000000000000EF01FFFF44
:200DBB00FFFF010003050009000000000000000020204650532053797374656D2020007387
:200DDB0077312D656E726F6C6C6D656E74007377322D617474656E64616E6365005363616C
:200DFB006E6E696E672020202020202000436F6C63205375636365737320004572726F723A
:200E1B0020526563766E67200046696E6720646574206661696C2000436F6C6C656374206F
:200E3B004661696C200047656E2053756363657373200044697320696D6167652020202005
:200E5B0000736D616C6E6573732065727220200056616C6964204661696C20202020004418
:200E7B00697320696D61676520004F7072205375636365737320004661696C20546F20432C
:200E9B006F6D62696E650073746F2073756363657373006572726F722072656300666C6197
:200EBB007368206572726F72004D6174636820666F756E642020004E6F206D617463686936
:180EDB006E6720202000416C616E005368696E6F0041646974796100F1
:200CF600FB7A20E4FCFDFEFFE5822582F582E58333F583E5F033F5F0EB33FB4017DAE98037
:200D160042E5822582F582E58333F583E5F033F5F0EB33FBEC33FCED33FDEE33FEEF33FF65
:200D3600EC9567ED9568EE9569EF956A4013EC9567FCED9568FDEE9569FEEF956AFF438237
:050D560001DABEEB22F2
:06005800E478FFF6D8FD7C
:200036007900E94400601B7A00900EF3780175A000E493F2A308B8000205A0D9F4DAF2756F
:02005600A0FF09
:20005E007800E84400600A790175A000E4F309D8FC7800E84400600C7900900001E4F0A3A0
:04007E00D8FCD9FAD7
:0D00290075816A120D77E5826003020026E2
:1C0D5B0020F71430F6148883A88220F507E6A88375830022E280F7E49322E022A7
:040D7700758200225F
:00000001FF
